S014000041544D4547413332415F53572E73726563B2
S11300000C942A000C9438020C9465020C9492020D
S11300100C9447000C9447000C9447000C94470040
S11300200C9447000C9447000C9447000C94470030
S11300300C9447000C9447000C9447000C94470020
S11300400C9447000C9447000C9447000C94470010
S11300500C94470011241FBECFE5D8E0DEBFCDBF0E
S113006010E0A0E6B0E0E6E7F9E002C005900D92EA
S1130070A637B107D9F720E0A6E7B0E001C01D928A
S1130080A239B207E1F70E9449000C94B9040C9418
S11300900000ECE7F0E080818160808312821182AD
S11300A087E0838381E08483158210868DEC9CEC49
S11300B0ACECBFE381879287A387B48715860E943F
S11300C0A6010E940701CCE7D0E011E0012F0F2E1A
S11300D0FAE0CF2ED12CE12CF12CF02D1D860F87C8
S11300E00E94BF0180E690E00E94640120E030E0BD
S11300F048EC52E4688979898A899B890E94F503CE
S11301000E9431030E94870188E690E00E94640106
S11301101D871F8760E0812F0E9473018AE690E0AB
S11301200E9464010E94BF01688979898A899B8938
S11301300E9431030E94870182E790E00E946401DB
S11301401F870E94BF0120E030E040E251E468894B
S113015079898A899B890E94F5030E943803A70143
S113016096010E9462040E94870184E790E00E9445
S113017064012FEF84E39CE0215080409040E1F73C
S113018000C000000E946001A9CFC098EFE9FFE021
S11301903197F1F700C00000C29AEFE9FFE0319710
S11301A0F1F700C0000098B39F7098BB98B3282F54
S11301B0207F922B98BBEFE9FFE03197F1F700C065
S11301C00000C298EFE9FFE03197F1F700C00000AA
S11301D0C29AEFE9FFE03197F1F700C0000098B34D
S11301E09F7098BB28B3F0E18F9FC0011124822B2C
S11301F088BB8FE99FE00197F1F700C00000C29827
S1130200EFE9FFE03197F1F700C00000089587B3EC
S1130210876087BB87B3856087BB87B3806F87BBE5
S113022082E00E94C50088E20E94C5008CE00E9422
S1130230C50081E00E94C5000895C09AC198EFE905
S1130240FFE03197F1F700C00000C29AEFE9FFE048
S11302503197F1F700C0000098B39F7098BB98B332
S1130260282F207F922B98BBEFE9FFE03197F1F71D
S113027000C00000C298EFE9FFE03197F1F700C039
S11302800000C29A98B39F7098BB28B3F0E18F9F87
S1130290C0011124822B88BB8FE99FE00197F1F7FD
S11302A000C00000EFE9FFE03197F1F700C0000063
S11302B0C2988FE99FE00197F1F700C0000008950C
S11302C081E00E94C5000895CF93DF93EC018881FB
S11302D0882331F021960E941D0189918111FBCF61
S11302E0DF91CF910895813031F060F0823029F0B0
S11302F0833029F006C0605C05C0605F03C0605BAA
S113030001C060E0862F80680E94C5000895CF93E5
S1130310DF93CDB7DEB765970FB6F894DEBF0FBE97
S1130320CDBFDC01CB014AE0BE016F5F7F4F0E946D
S11303308404CE0101960E94640165960FB6F89478
S1130340DEBF0FBECDBFDF91CF91089580917C00B9
S113035080FF13C0ECE7F0E0808587B980B78F7029
S113036080BF90B78281892B80BF95818381892B3F
S113037080689181892B86B9089516B80895CF9223
S1130380DF92EF92FF92CF93DF9387B1807C87B99E
S113039097B1ECE7F0E08585892B87B984818130BA
S11303A019F487B187B901C03D9A80918B008130DF
S11303B009F057C0ECE7F0E01786369A858188305B
S11303C009F44FC0349BFECF80918000813009F046
S11303D047C064B185B170E0782BECE7F0E0758B31
S11303E0648B85858850863128F5EF0180E090E0A4
S11303F00E94670329853A854B855C850E94F50335
S11304006B017C018E85682F70E080E090E00E9493
S1130410690320E030E040E054E40E94F5039B01CE
S1130420AC01C701B6010E94BF02688B798B8A8B2D
S11304309B8B16C0CCE7D0E080E090E00E9467037D
S113044029853A854B855C850E94F50320E030E0E0
S113045040E85AE30E94F503688B798B8A8B9B8B67
S1130460349ADF91CF91FF90EF90DF90CF90089571
S11304701F920F920FB60F9211242F933F934F9315
S11304805F936F937F938F939F93AF93BF93EF93F8
S1130490FF9380917A0090917B00892B29F0E09161
S11304A07A00F0917B000995FF91EF91BF91AF9194
S11304B09F918F917F916F915F914F913F912F9178
S11304C00F900FBE0F901F9018951F920F920FB6AA
S11304D00F9211242F933F934F935F936F937F93C6
S11304E08F939F93AF93BF93EF93FF938091780083
S11304F090917900892B29F0E0917800F0917900AE
S11305000995FF91EF91BF91AF919F918F917F9149
S11305106F915F914F913F912F910F900FBE0F906C
S11305201F9018951F920F920FB60F9211242F93BC
S11305303F934F935F936F937F938F939F93AF9367
S1130540BF93EF93FF938091760090917700892B6E
S113055029F0E0917600F09177000995FF91EF91F1
S1130560BF91AF919F918F917F916F915F914F91C7
S11305703F912F910F900FBE0F901F9018950E94DE
S1130580D3020C94BB030E94B40358F00E94AD0341
S113059040F029F45F3F29F00C94A40351110C940A
S11305A0EF030C94AA030E94CC0368F39923B1F3DC
S11305B0552391F3951B550BBB27AA276217730785
S11305C0840738F09F5F5F4F220F331F441FAA1F19
S11305D0A9F335D00E2E3AF0E0E832D091505040D5
S11305E0E695001CCAF72BD0FE2F29D0660F771F83
S11305F0881FBB1F261737074807AB07B0E809F069
S1130600BB0B802DBF01FF2793585F4F3AF09E3FED
S1130610510578F00C94A4030C94EF035F3FE4F3CA
S1130620983ED4F3869577956795B795F7959F5F30
S1130630C9F7880F911D9695879597F90895E1E07C
S1130640660F771F881FBB1F621773078407BA07DB
S113065020F0621B730B840BBA0BEE1F88F7E09536
S113066008950E9438036894B1110C94EF0308951F
S11306700E94D40388F09F5798F0B92F9927B75157
S1130680B0F0E1F0660F771F881F991F1AF0BA9532
S1130690C9F714C0B13091F00E94EE03B1E008959F
S11306A00C94EE03672F782F8827B85F39F0B93F91
S11306B0CCF3869577956795B395D9F73EF49095E5
S11306C08095709561957F4F8F4F9F4F0895E89463
S11306D009C097FB3EF490958095709561957F4F86
S11306E08F4F9F4F9923A9F0F92F96E9BB27939534
S11306F0F695879577956795B795F111F8CFFAF444
S1130700BB0F11F460FF1BC06F5F7F4F8F4F9F4F74
S113071016C0882311F096E911C0772321F09EE8D2
S1130720872F762F05C0662371F096E8862F70E038
S113073060E02AF09A95660F771F881FDAF7880F12
S11307409695879597F9089597F99F6780E870E0E3
S113075060E008959FEF80EC089500240A94161633
S1130760170618060906089500240A94121613069B
S1130770140605060895092E0394000C11F4882329
S113078052F0BB0F40F4BF2B11F460FF04C06F5F45
S11307907F4F8F4F9F4F089557FD9058440F551F1B
S11307A059F05F3F71F04795880F97FB991F61F0EF
S11307B09F3F79F087950895121613061406551F66
S11307C0F2CF4695F1DF08C0161617061806991FD2
S11307D0F1CF86957105610508940895E894BB27C7
S11307E066277727CB0197F908950E9408040C9493
S11307F0BB030E94AD0338F00E94B40320F095239C
S113080011F00C94A4030C94AA0311240C94EF0388
S11308100E94CC0370F3959FC1F3950F50E0551FD0
S1130820629FF001729FBB27F00DB11D639FAA2741
S1130830F00DB11DAA1F649F6627B00DA11D661F90
S1130840829F2227B00DA11D621F739FB00DA11DB1
S1130850621F839FA00D611D221F749F3327A00D6B
S1130860611D231F849F600D211D822F762F6A2F07
S113087011249F5750409AF0F1F088234AF0EE0F6C
S1130880FF1FBB1F661F771F881F91505040A9F799
S11308909E3F510580F00C94A4030C94EF035F3F3A
S11308A0E4F3983ED4F3869577956795B795F795D5
S11308B0E7959F5FC1F7FE2B880F911D969587954D
S11308C097F90895A1E21A2EAA1BBB1BFD010DC0C6
S11308D0AA1FBB1FEE1FFF1FA217B307E407F507EC
S11308E020F0A21BB30BE40BF50B661F771F881FC8
S11308F0991F1A9469F760957095809590959B015E
S1130900AC01BD01CF010895BB274A3031F49923CE
S113091022F4BDE2909581959F4F0C949004BB27DF
S1130920FB015527AA27880F991FAA1FA41710F0A7
S1130930A41B83955051B9F7A05DAA3308F0A95DB3
S1130940A193009779F7B111B1931192CB010C9453
S1130950A904DC01FC01672F71917723E1F7329739
S113096004C07C916D9370836291AE17BF07C8F386
S10909700895F894FFCF86
S113097654656D70203D20004300566F6C74203D15
S109098620002E005600C3
S9030000FC
